{
  "_format": "hh-sol-artifact-1",
  "contractName": "SportsbookBase",
  "sourceName": "contracts/SportsbookBase.sol",
  "abi": [
    {
      "inputs": [],
      "stateMutability": "payable",
      "type": "constructor"
    },
    {
      "anonymous": false,
      "inputs": [
        {
          "indexed": true,
          "internalType": "uint256",
          "name": "MatchChallengeId",
          "type": "uint256"
        },
        {
          "indexed": false,
          "internalType": "uint8",
          "name": "team1Result",
          "type": "uint8"
        },
        {
          "indexed": false,
          "internalType": "uint8",
          "name": "team2Result",
          "type": "uint8"
        }
      ],
      "name": "ChallengeResult",
      "type": "event"
    },
    {
      "inputs": [
        {
          "internalType": "uint256",
          "name": "_challengeId",
          "type": "uint256"
        }
      ],
      "name": "acceptChallenge",
      "outputs": [],
      "stateMutability": "payable",
      "type": "function"
    },
    {
      "inputs": [
        {
          "internalType": "uint256",
          "name": "_challengeId",
          "type": "uint256"
        },
        {
          "internalType": "uint8",
          "name": "_team1Result",
          "type": "uint8"
        },
        {
          "internalType": "uint8",
          "name": "_team2Result",
          "type": "uint8"
        }
      ],
      "name": "completeChallenge",
      "outputs": [],
      "stateMutability": "nonpayable",
      "type": "function"
    },
    {
      "inputs": [
        {
          "internalType": "address",
          "name": "_team2",
          "type": "address"
        },
        {
          "internalType": "address",
          "name": "locationProvider",
          "type": "address"
        }
      ],
      "name": "createChallenge",
      "outputs": [],
      "stateMutability": "payable",
      "type": "function"
    },
    {
      "inputs": [
        {
          "internalType": "uint256",
          "name": "_challengeId",
          "type": "uint256"
        }
      ],
      "name": "deleteChallenge",
      "outputs": [],
      "stateMutability": "nonpayable",
      "type": "function"
    },
    {
      "inputs": [
        {
          "internalType": "uint256",
          "name": "_id",
          "type": "uint256"
        }
      ],
      "name": "isMatchAccepted",
      "outputs": [
        {
          "internalType": "bool",
          "name": "",
          "type": "bool"
        }
      ],
      "stateMutability": "view",
      "type": "function"
    },
    {
      "inputs": [
        {
          "internalType": "uint256",
          "name": "_id",
          "type": "uint256"
        }
      ],
      "name": "isMatchFinished",
      "outputs": [
        {
          "internalType": "bool",
          "name": "",
          "type": "bool"
        }
      ],
      "stateMutability": "view",
      "type": "function"
    },
    {
      "inputs": [
        {
          "internalType": "uint256",
          "name": "_id",
          "type": "uint256"
        }
      ],
      "name": "isMatchStarted",
      "outputs": [
        {
          "internalType": "bool",
          "name": "",
          "type": "bool"
        }
      ],
      "stateMutability": "view",
      "type": "function"
    },
    {
      "inputs": [
        {
          "internalType": "uint256",
          "name": "",
          "type": "uint256"
        }
      ],
      "name": "matchChallenges",
      "outputs": [
        {
          "internalType": "address",
          "name": "team1",
          "type": "address"
        },
        {
          "internalType": "address",
          "name": "team2",
          "type": "address"
        },
        {
          "internalType": "bool",
          "name": "accepted",
          "type": "bool"
        },
        {
          "internalType": "bool",
          "name": "started",
          "type": "bool"
        },
        {
          "internalType": "bool",
          "name": "finished",
          "type": "bool"
        },
        {
          "internalType": "uint256",
          "name": "amount",
          "type": "uint256"
        },
        {
          "internalType": "address",
          "name": "locationProvider",
          "type": "address"
        }
      ],
      "stateMutability": "view",
      "type": "function"
    },
    {
      "inputs": [
        {
          "internalType": "uint256",
          "name": "_challengeId",
          "type": "uint256"
        }
      ],
      "name": "startChallenge",
      "outputs": [],
      "stateMutability": "nonpayable",
      "type": "function"
    },
    {
      "inputs": [
        {
          "internalType": "uint256",
          "name": "_challengeId",
          "type": "uint256"
        },
        {
          "internalType": "address",
          "name": "_newTeam2",
          "type": "address"
        }
      ],
      "name": "updateChallengedTeam",
      "outputs": [],
      "stateMutability": "nonpayable",
      "type": "function"
    },
    {
      "inputs": [
        {
          "internalType": "uint256",
          "name": "_id",
          "type": "uint256"
        }
      ],
      "name": "viewMatchChallenge",
      "outputs": [
        {
          "internalType": "address[3]",
          "name": "",
          "type": "address[3]"
        }
      ],
      "stateMutability": "view",
      "type": "function"
    }
  ],
  "bytecode": "0x608060405261233b806100136000396000f3fe60806040526004361061009c5760003560e01c8063486b971211610064578063486b9712146101755780636ad4e87a146101b25780638df9378a146101db578063c40ab0ef14610218578063e4576ea21461025b578063e61a067c146102985761009c565b8063030a8082146100a157806311a5800d146100ca5780631b0fc106146100f357806321d1c6ec1461010f5780633bf4a75914610138575b600080fd5b3480156100ad57600080fd5b506100c860048036038101906100c39190611823565b6102b4565b005b3480156100d657600080fd5b506100f160048036038101906100ec9190611876565b610926565b005b61010d60048036038101906101089190611876565b610d72565b005b34801561011b57600080fd5b5061013660048036038101906101319190611901565b610ece565b005b34801561014457600080fd5b5061015f600480360381019061015a9190611876565b611062565b60405161016c919061195c565b60405180910390f35b34801561018157600080fd5b5061019c60048036038101906101979190611876565b61109d565b6040516101a9919061195c565b60405180910390f35b3480156101be57600080fd5b506101d960048036038101906101d49190611876565b6110d8565b005b3480156101e757600080fd5b5061020260048036038101906101fd9190611876565b6112f9565b60405161020f9190611a22565b60405180910390f35b34801561022457600080fd5b5061023f600480360381019061023a9190611876565b61148b565b6040516102529796959493929190611a5b565b60405180910390f35b34801561026757600080fd5b50610282600480360381019061027d9190611876565b611564565b60405161028f919061195c565b60405180910390f35b6102b260048036038101906102ad9190611aca565b61159f565b005b60011515600084815481106102cc576102cb611b0a565b5b906000526020600020906004020160010160159054906101000a900460ff1615151461032d576040517f08c379a000000000000000000000000000000000000000000000000000000000815260040161032490611b96565b60405180910390fd5b600015156000848154811061034557610344611b0a565b5b906000526020600020906004020160010160169054906101000a900460ff161515146103a6576040517f08c379a000000000000000000000000000000000000000000000000000000000815260040161039d90611c02565b60405180910390fd5b600073ffffffffffffffffffffffffffffffffffffffff16600084815481106103d2576103d1611b0a565b5b906000526020600020906004020160010160009054906101000a900473ffffffffffffffffffffffffffffffffffffffff1673ffffffffffffffffffffffffffffffffffffffff160361045a576040517f08c379a000000000000000000000000000000000000000000000000000000000815260040161045190611c6e565b60405180910390fd5b6000838154811061046e5761046d611b0a565b5b906000526020600020906004020160030160009054906101000a900473ffffffffffffffffffffffffffffffffffffffff1673ffffffffffffffffffffffffffffffffffffffff163373ffffffffffffffffffffffffffffffffffffffff161461050d576040517f08c379a000000000000000000000000000000000000000000000000000000000815260040161050490611d00565b60405180910390fd5b60016000848154811061052357610522611b0a565b5b906000526020600020906004020160010160166101000a81548160ff021916908315150217905550827fe07ce8213c97adb2c7dd4e814f63b8613e929623bd94f12b0bbbdb67ea097f6f838360405161057d929190611d2f565b60405180910390a28060ff168260ff1611156106765760008084815481106105a8576105a7611b0a565b5b906000526020600020906004020160000160009054906101000a900473ffffffffffffffffffffffffffffffffffffffff1673ffffffffffffffffffffffffffffffffffffffff1660026000868154811061060657610605611b0a565b5b9060005260206000209060040201600201546106229190611d87565b60405161062e90611dfa565b60006040518083038185875af1925050503d806000811461066b576040519150601f19603f3d011682016040523d82523d6000602084013e610670565b606091505b50509050505b8060ff168260ff16101561076757600080848154811061069957610698611b0a565b5b906000526020600020906004020160010160009054906101000a900473ffffffffffffffffffffffffffffffffffffffff1673ffffffffffffffffffffffffffffffffffffffff166002600086815481106106f7576106f6611b0a565b5b9060005260206000209060040201600201546107139190611d87565b60405161071f90611dfa565b60006040518083038185875af1925050503d806000811461075c576040519150601f19603f3d011682016040523d82523d6000602084013e610761565b606091505b50509050505b8060ff168260ff160361092157600080848154811061078957610788611b0a565b5b906000526020600020906004020160000160009054906101000a900473ffffffffffffffffffffffffffffffffffffffff1673ffffffffffffffffffffffffffffffffffffffff16600085815481106107e5576107e4611b0a565b5b90600052602060002090600402016002015460405161080390611dfa565b60006040518083038185875af1925050503d8060008114610840576040519150601f19603f3d011682016040523d82523d6000602084013e610845565b606091505b50509050600080858154811061085e5761085d611b0a565b5b906000526020600020906004020160010160009054906101000a900473ffffffffffffffffffffffffffffffffffffffff1673ffffffffffffffffffffffffffffffffffffffff16600086815481106108ba576108b9611b0a565b5b9060005260206000209060040201600201546040516108d890611dfa565b60006040518083038185875af1925050503d8060008114610915576040519150601f19603f3d011682016040523d82523d6000602084013e61091a565b606091505b5050905050505b505050565b600015156000828154811061093e5761093d611b0a565b5b906000526020600020906004020160010160169054906101000a900460ff1615151461099f576040517f08c379a000000000000000000000000000000000000000000000000000000000815260040161099690611e81565b60405180910390fd5b60001515600082815481106109b7576109b6611b0a565b5b906000526020600020906004020160010160159054906101000a900460ff16151514610a18576040517f08c379a0000000000000000000000000000000000000000000000000000000008152600401610a0f90611f13565b60405180910390fd5b60008181548110610a2c57610a2b611b0a565b5b906000526020600020906004020160000160009054906101000a900473ffffffffffffffffffffffffffffffffffffffff1673ffffffffffffffffffffffffffffffffffffffff163373ffffffffffffffffffffffffffffffffffffffff161480610b07575060008181548110610aa657610aa5611b0a565b5b906000526020600020906004020160010160009054906101000a900473ffffffffffffffffffffffffffffffffffffffff1673ffffffffffffffffffffffffffffffffffffffff163373ffffffffffffffffffffffffffffffffffffffff16145b610b46576040517f08c379a0000000000000000000000000000000000000000000000000000000008152600401610b3d90611f7f565b60405180910390fd5b600160008281548110610b5c57610b5b611b0a565b5b906000526020600020906004020160010160166101000a81548160ff0219169083151502179055506000808281548110610b9957610b98611b0a565b5b906000526020600020906004020160000160009054906101000a900473ffffffffffffffffffffffffffffffffffffffff1673ffffffffffffffffffffffffffffffffffffffff1660008381548110610bf557610bf4611b0a565b5b906000526020600020906004020160020154604051610c1390611dfa565b60006040518083038185875af1925050503d8060008114610c50576040519150601f19603f3d011682016040523d82523d6000602084013e610c55565b606091505b505090506001151560008381548110610c7157610c70611b0a565b5b906000526020600020906004020160010160149054906101000a900460ff16151503610d6e576000808381548110610cac57610cab611b0a565b5b906000526020600020906004020160010160009054906101000a900473ffffffffffffffffffffffffffffffffffffffff1673ffffffffffffffffffffffffffffffffffffffff1660008481548110610d0857610d07611b0a565b5b906000526020600020906004020160020154604051610d2690611dfa565b60006040518083038185875af1925050503d8060008114610d63576040519150601f19603f3d011682016040523d82523d6000602084013e610d68565b606091505b50509050505b5050565b60008181548110610d8657610d85611b0a565b5b906000526020600020906004020160010160009054906101000a900473ffffffffffffffffffffffffffffffffffffffff1673ffffffffffffffffffffffffffffffffffffffff163373ffffffffffffffffffffffffffffffffffffffff1614610e25576040517f08c379a0000000000000000000000000000000000000000000000000000000008152600401610e1c90611feb565b60405180910390fd5b60008181548110610e3957610e38611b0a565b5b906000526020600020906004020160020154341015610e8d576040517f08c379a0000000000000000000000000000000000000000000000000000000008152600401610e8490612057565b60405180910390fd5b600160008281548110610ea357610ea2611b0a565b5b906000526020600020906004020160010160146101000a81548160ff02191690831515021790555050565b60008281548110610ee257610ee1611b0a565b5b906000526020600020906004020160000160009054906101000a900473ffffffffffffffffffffffffffffffffffffffff1673ffffffffffffffffffffffffffffffffffffffff163373ffffffffffffffffffffffffffffffffffffffff1614610f81576040517f08c379a0000000000000000000000000000000000000000000000000000000008152600401610f78906120c3565b60405180910390fd5b6001151560008381548110610f9957610f98611b0a565b5b906000526020600020906004020160010160149054906101000a900460ff16151503610ffa576040517f08c379a0000000000000000000000000000000000000000000000000000000008152600401610ff190612155565b60405180910390fd5b806000838154811061100f5761100e611b0a565b5b906000526020600020906004020160010160006101000a81548173ffffffffffffffffffffffffffffffffffffffff021916908373ffffffffffffffffffffffffffffffffffffffff1602179055505050565b600080828154811061107757611076611b0a565b5b906000526020600020906004020160010160159054906101000a900460ff169050919050565b60008082815481106110b2576110b1611b0a565b5b906000526020600020906004020160010160149054906101000a900460ff169050919050565b60011515600082815481106110f0576110ef611b0a565b5b906000526020600020906004020160010160149054906101000a900460ff16151514611151576040517f08c379a0000000000000000000000000000000000000000000000000000000008152600401611148906121e7565b60405180910390fd5b3373ffffffffffffffffffffffffffffffffffffffff166000828154811061117c5761117b611b0a565b5b906000526020600020906004020160030160009054906101000a900473ffffffffffffffffffffffffffffffffffffffff1673ffffffffffffffffffffffffffffffffffffffff1614611204576040517f08c379a00000000000000000000000000000000000000000000000000000000081526004016111fb90612279565b60405180910390fd5b600073ffffffffffffffffffffffffffffffffffffffff16600082815481106112305761122f611b0a565b5b906000526020600020906004020160010160009054906101000a900473ffffffffffffffffffffffffffffffffffffffff1673ffffffffffffffffffffffffffffffffffffffff16036112b8576040517f08c379a00000000000000000000000000000000000000000000000000000000081526004016112af906122e5565b60405180910390fd5b6001600082815481106112ce576112cd611b0a565b5b906000526020600020906004020160010160156101000a81548160ff02191690831515021790555050565b61130161178d565b600080838154811061131657611315611b0a565b5b906000526020600020906004020160000160009054906101000a900473ffffffffffffffffffffffffffffffffffffffff169050600080848154811061135f5761135e611b0a565b5b906000526020600020906004020160010160009054906101000a900473ffffffffffffffffffffffffffffffffffffffff16905060008085815481106113a8576113a7611b0a565b5b906000526020600020906004020160030160009054906101000a900473ffffffffffffffffffffffffffffffffffffffff169050600060405180606001604052808573ffffffffffffffffffffffffffffffffffffffff1673ffffffffffffffffffffffffffffffffffffffff1681526020018473ffffffffffffffffffffffffffffffffffffffff1673ffffffffffffffffffffffffffffffffffffffff1681526020018373ffffffffffffffffffffffffffffffffffffffff1673ffffffffffffffffffffffffffffffffffffffff16815250905080945050505050919050565b6000818154811061149b57600080fd5b90600052602060002090600402016000915090508060000160009054906101000a900473ffffffffffffffffffffffffffffffffffffffff16908060010160009054906101000a900473ffffffffffffffffffffffffffffffffffffffff16908060010160149054906101000a900460ff16908060010160159054906101000a900460ff16908060010160169054906101000a900460ff16908060020154908060030160009054906101000a900473ffffffffffffffffffffffffffffffffffffffff16905087565b600080828154811061157957611578611b0a565b5b906000526020600020906004020160010160169054906101000a900460ff169050919050565b60006040518060e001604052803373ffffffffffffffffffffffffffffffffffffffff1681526020018473ffffffffffffffffffffffffffffffffffffffff1681526020016000151581526020016000151581526020016000151581526020013481526020018373ffffffffffffffffffffffffffffffffffffffff16815250908060018154018082558091505060019003906000526020600020906004020160009091909190915060008201518160000160006101000a81548173ffffffffffffffffffffffffffffffffffffffff021916908373ffffffffffffffffffffffffffffffffffffffff16021790555060208201518160010160006101000a81548173ffffffffffffffffffffffffffffffffffffffff021916908373ffffffffffffffffffffffffffffffffffffffff16021790555060408201518160010160146101000a81548160ff02191690831515021790555060608201518160010160156101000a81548160ff02191690831515021790555060808201518160010160166101000a81548160ff02191690831515021790555060a0820151816002015560c08201518160030160006101000a81548173ffffffffffffffffffffffffffffffffffffffff021916908373ffffffffffffffffffffffffffffffffffffffff16021790555050505050565b6040518060600160405280600390602082028036833780820191505090505090565b600080fd5b6000819050919050565b6117c7816117b4565b81146117d257600080fd5b50565b6000813590506117e4816117be565b92915050565b600060ff82169050919050565b611800816117ea565b811461180b57600080fd5b50565b60008135905061181d816117f7565b92915050565b60008060006060848603121561183c5761183b6117af565b5b600061184a868287016117d5565b935050602061185b8682870161180e565b925050604061186c8682870161180e565b9150509250925092565b60006020828403121561188c5761188b6117af565b5b600061189a848285016117d5565b91505092915050565b600073ffffffffffffffffffffffffffffffffffffffff82169050919050565b60006118ce826118a3565b9050919050565b6118de816118c3565b81146118e957600080fd5b50565b6000813590506118fb816118d5565b92915050565b60008060408385031215611918576119176117af565b5b6000611926858286016117d5565b9250506020611937858286016118ec565b9150509250929050565b60008115159050919050565b61195681611941565b82525050565b6000602082019050611971600083018461194d565b92915050565b600060039050919050565b600081905092915050565b6000819050919050565b6119a0816118c3565b82525050565b60006119b28383611997565b60208301905092915050565b6000602082019050919050565b6119d481611977565b6119de8184611982565b92506119e98261198d565b8060005b83811015611a1a578151611a0187826119a6565b9650611a0c836119be565b9250506001810190506119ed565b505050505050565b6000606082019050611a3760008301846119cb565b92915050565b611a46816118c3565b82525050565b611a55816117b4565b82525050565b600060e082019050611a70600083018a611a3d565b611a7d6020830189611a3d565b611a8a604083018861194d565b611a97606083018761194d565b611aa4608083018661194d565b611ab160a0830185611a4c565b611abe60c0830184611a3d565b98975050505050505050565b60008060408385031215611ae157611ae06117af565b5b6000611aef858286016118ec565b9250506020611b00858286016118ec565b9150509250929050565b7f4e487b7100000000000000000000000000000000000000000000000000000000600052603260045260246000fd5b600082825260208201905092915050565b7f4368616c6c656e6765206861736e277420737461727465642100000000000000600082015250565b6000611b80601983611b39565b9150611b8b82611b4a565b602082019050919050565b60006020820190508181036000830152611baf81611b73565b9050919050565b7f4368616c6c656e676520616c726561647920636f6d706c657465640000000000600082015250565b6000611bec601b83611b39565b9150611bf782611bb6565b602082019050919050565b60006020820190508181036000830152611c1b81611bdf565b9050919050565b7f5468657265206d7573742062652061207465616d322100000000000000000000600082015250565b6000611c58601683611b39565b9150611c6382611c22565b602082019050919050565b60006020820190508181036000830152611c8781611c4b565b9050919050565b7f596f75206d75737420626520746865206c6f636174696f6e2070726f7669646560008201527f7220746f207361792077686f20776f6e00000000000000000000000000000000602082015250565b6000611cea603083611b39565b9150611cf582611c8e565b604082019050919050565b60006020820190508181036000830152611d1981611cdd565b9050919050565b611d29816117ea565b82525050565b6000604082019050611d446000830185611d20565b611d516020830184611d20565b9392505050565b7f4e487b7100000000000000000000000000000000000000000000000000000000600052601160045260246000fd5b6000611d92826117b4565b9150611d9d836117b4565b9250828202611dab816117b4565b91508282048414831517611dc257611dc1611d58565b5b5092915050565b600081905092915050565b50565b6000611de4600083611dc9565b9150611def82611dd4565b600082019050919050565b6000611e0582611dd7565b9150819050919050565b7f4368616c6c656e67652068617320616c7265616479206265656e2066696e697360008201527f6865642100000000000000000000000000000000000000000000000000000000602082015250565b6000611e6b602483611b39565b9150611e7682611e0f565b604082019050919050565b60006020820190508181036000830152611e9a81611e5e565b9050919050565b7f4368616c6c656e67652068617320616c7265616479206265656e20737461727460008201527f6564210000000000000000000000000000000000000000000000000000000000602082015250565b6000611efd602383611b39565b9150611f0882611ea1565b604082019050919050565b60006020820190508181036000830152611f2c81611ef0565b9050919050565b7f596f75277265206e6f7420616e79206f6620746865207465616d732100000000600082015250565b6000611f69601c83611b39565b9150611f7482611f33565b602082019050919050565b60006020820190508181036000830152611f9881611f5c565b9050919050565b7f596f75277265206e6f7420746865206368616c6c656e676564207465616d2100600082015250565b6000611fd5601f83611b39565b9150611fe082611f9f565b602082019050919050565b6000602082019050818103600083015261200481611fc8565b9050919050565b7f486176656e27742073656e7420656e6f75676820455448210000000000000000600082015250565b6000612041601883611b39565b915061204c8261200b565b602082019050919050565b6000602082019050818103600083015261207081612034565b9050919050565b7f596f75277265206e6f7420746865207465616d31210000000000000000000000600082015250565b60006120ad601583611b39565b91506120b882612077565b602082019050919050565b600060208201905081810360008301526120dc816120a0565b9050919050565b7f4368616c6c656e67652068617320616c7265616479206265656e20616363657060008201527f7465642100000000000000000000000000000000000000000000000000000000602082015250565b600061213f602483611b39565b915061214a826120e3565b604082019050919050565b6000602082019050818103600083015261216e81612132565b9050919050565b7f5465616d32206861736e277420616363657074656420746865206368616c6c6560008201527f6e67652100000000000000000000000000000000000000000000000000000000602082015250565b60006121d1602483611b39565b91506121dc82612175565b604082019050919050565b60006020820190508181036000830152612200816121c4565b9050919050565b7f596f75277265206e6f7420746865206c6f636174696f6e2070726f766964657260008201527f2100000000000000000000000000000000000000000000000000000000000000602082015250565b6000612263602183611b39565b915061226e82612207565b604082019050919050565b6000602082019050818103600083015261229281612256565b9050919050565b7f4c61636b696e672061207465616d206f72206d617463682063616e63656c6564600082015250565b60006122cf602083611b39565b91506122da82612299565b602082019050919050565b600060208201905081810360008301526122fe816122c2565b905091905056fea26469706673582212201998d3421149205b06192755591adb59f208109f3c672f20c54157b270bc486864736f6c63430008110033",
  "linkReferences": {},
  "deployedLinkReferences": {}
}